{
  "contractName": "BlockStore",
  "abi": [
    {
      "inputs": [],
      "stateMutability": "nonpayable",
      "type": "constructor"
    },
    {
      "inputs": [
        {
          "internalType": "uint256",
          "name": "",
          "type": "uint256"
        }
      ],
      "name": "deliveryRequests",
      "outputs": [
        {
          "internalType": "address",
          "name": "sender",
          "type": "address"
        },
        {
          "internalType": "address",
          "name": "receiver",
          "type": "address"
        },
        {
          "internalType": "uint256",
          "name": "productId",
          "type": "uint256"
        },
        {
          "internalType": "bool",
          "name": "isDelivered",
          "type": "bool"
        }
      ],
      "stateMutability": "view",
      "type": "function",
      "constant": true
    },
    {
      "inputs": [],
      "name": "productCount",
      "outputs": [
        {
          "internalType": "uint256",
          "name": "",
          "type": "uint256"
        }
      ],
      "stateMutability": "view",
      "type": "function",
      "constant": true
    },
    {
      "inputs": [
        {
          "internalType": "uint256",
          "name": "",
          "type": "uint256"
        }
      ],
      "name": "products",
      "outputs": [
        {
          "internalType": "uint256",
          "name": "id",
          "type": "uint256"
        },
        {
          "internalType": "string",
          "name": "name",
          "type": "string"
        },
        {
          "internalType": "uint256",
          "name": "price",
          "type": "uint256"
        },
        {
          "internalType": "address",
          "name": "seller",
          "type": "address"
        },
        {
          "internalType": "bool",
          "name": "isAvailable",
          "type": "bool"
        }
      ],
      "stateMutability": "view",
      "type": "function",
      "constant": true
    },
    {
      "inputs": [],
      "name": "requestCount",
      "outputs": [
        {
          "internalType": "uint256",
          "name": "",
          "type": "uint256"
        }
      ],
      "stateMutability": "view",
      "type": "function",
      "constant": true
    },
    {
      "inputs": [
        {
          "internalType": "address",
          "name": "",
          "type": "address"
        }
      ],
      "name": "roleChangeRequests",
      "outputs": [
        {
          "internalType": "address",
          "name": "userAddress",
          "type": "address"
        },
        {
          "internalType": "enum BlockStore.Role",
          "name": "currentRole",
          "type": "uint8"
        },
        {
          "internalType": "enum BlockStore.Role",
          "name": "desiredRole",
          "type": "uint8"
        },
        {
          "internalType": "enum BlockStore.ReqStatus",
          "name": "reqStatus",
          "type": "uint8"
        }
      ],
      "stateMutability": "view",
      "type": "function",
      "constant": true
    },
    {
      "inputs": [
        {
          "internalType": "address",
          "name": "",
          "type": "address"
        }
      ],
      "name": "stores",
      "outputs": [
        {
          "internalType": "address",
          "name": "owner",
          "type": "address"
        },
        {
          "internalType": "uint256",
          "name": "rating",
          "type": "uint256"
        },
        {
          "internalType": "string",
          "name": "name",
          "type": "string"
        },
        {
          "internalType": "uint256",
          "name": "balance",
          "type": "uint256"
        }
      ],
      "stateMutability": "view",
      "type": "function",
      "constant": true
    },
    {
      "inputs": [
        {
          "internalType": "address",
          "name": "",
          "type": "address"
        }
      ],
      "name": "users",
      "outputs": [
        {
          "internalType": "enum BlockStore.Role",
          "name": "role",
          "type": "uint8"
        },
        {
          "internalType": "address",
          "name": "userAddress",
          "type": "address"
        },
        {
          "internalType": "string",
          "name": "password",
          "type": "string"
        },
        {
          "internalType": "bool",
          "name": "isRegistered",
          "type": "bool"
        }
      ],
      "stateMutability": "view",
      "type": "function",
      "constant": true
    },
    {
      "inputs": [
        {
          "internalType": "address",
          "name": "_userAddress",
          "type": "address"
        },
        {
          "internalType": "enum BlockStore.Role",
          "name": "_role",
          "type": "uint8"
        },
        {
          "internalType": "string",
          "name": "_password",
          "type": "string"
        }
      ],
      "name": "createUser",
      "outputs": [],
      "stateMutability": "nonpayable",
      "type": "function"
    },
    {
      "inputs": [
        {
          "internalType": "address",
          "name": "_storeAddress",
          "type": "address"
        },
        {
          "internalType": "string",
          "name": "_name",
          "type": "string"
        }
      ],
      "name": "createStore",
      "outputs": [],
      "stateMutability": "nonpayable",
      "type": "function"
    },
    {
      "inputs": [
        {
          "internalType": "address",
          "name": "_adminAddress",
          "type": "address"
        },
        {
          "internalType": "string",
          "name": "_password",
          "type": "string"
        }
      ],
      "name": "createAdmin",
      "outputs": [],
      "stateMutability": "nonpayable",
      "type": "function"
    },
    {
      "inputs": [
        {
          "internalType": "address",
          "name": "_storeAddress",
          "type": "address"
        }
      ],
      "name": "removeStore",
      "outputs": [],
      "stateMutability": "nonpayable",
      "type": "function"
    },
    {
      "inputs": [
        {
          "internalType": "string",
          "name": "_name",
          "type": "string"
        },
        {
          "internalType": "uint256",
          "name": "_price",
          "type": "uint256"
        }
      ],
      "name": "createProduct",
      "outputs": [],
      "stateMutability": "nonpayable",
      "type": "function"
    },
    {
      "inputs": [
        {
          "internalType": "uint256",
          "name": "_productId",
          "type": "uint256"
        }
      ],
      "name": "buyProduct",
      "outputs": [],
      "stateMutability": "payable",
      "type": "function",
      "payable": true
    },
    {
      "inputs": [
        {
          "internalType": "uint256",
          "name": "_productId",
          "type": "uint256"
        }
      ],
      "name": "returnProduct",
      "outputs": [],
      "stateMutability": "payable",
      "type": "function",
      "payable": true
    },
    {
      "inputs": [
        {
          "internalType": "enum BlockStore.Role",
          "name": "_desiredRole",
          "type": "uint8"
        }
      ],
      "name": "createRequestRoleChange",
      "outputs": [],
      "stateMutability": "nonpayable",
      "type": "function"
    },
    {
      "inputs": [
        {
          "internalType": "address",
          "name": "_userAddress",
          "type": "address"
        }
      ],
      "name": "approveRoleChange",
      "outputs": [],
      "stateMutability": "nonpayable",
      "type": "function"
    },
    {
      "inputs": [
        {
          "internalType": "address",
          "name": "_userAddress",
          "type": "address"
        }
      ],
      "name": "rejectRoleChange",
      "outputs": [],
      "stateMutability": "nonpayable",
      "type": "function"
    },
    {
      "inputs": [
        {
          "internalType": "address",
          "name": "_receiver",
          "type": "address"
        },
        {
          "internalType": "uint256",
          "name": "_productId",
          "type": "uint256"
        }
      ],
      "name": "createDeliveryRequest",
      "outputs": [],
      "stateMutability": "nonpayable",
      "type": "function"
    },
    {
      "inputs": [
        {
          "internalType": "uint256",
          "name": "_requestId",
          "type": "uint256"
        }
      ],
      "name": "confirmDelivery",
      "outputs": [],
      "stateMutability": "nonpayable",
      "type": "function"
    }
  ],
  "bytecode": "0x60806040523480156200001157600080fd5b506040518060800160405280600060038111156200002b57fe5b815260200173627306090abab3a6e1400e9345bc60c78a8bef5773ffffffffffffffffffffffffffffffffffffffff1681526020016040518060400160405280600981526020017f61646d696e70617373000000000000000000000000000000000000000000000081525081526020016001151581525060008073627306090abab3a6e1400e9345bc60c78a8bef5773ffffffffffffffffffffffffffffffffffffffff1673ffffffffffffffffffffffffffffffffffffffff16815260200190815260200160002060008201518160000160006101000a81548160ff021916908360038111156200011957fe5b021790555060208201518160000160016101000a81548173ffffffffffffffffffffffffffffffffffffffff021916908373ffffffffffffffffffffffffffffffffffffffff160217905550604082015181600101908051906020019062000183929190620004d7565b5060608201518160020160006101000a81548160ff021916908315150217905550905050604051806080016040528060016003811115620001c057fe5b815260200173f17f52151ebef6c7334fad080c5704d77216b73273ffffffffffffffffffffffffffffffffffffffff1681526020016040518060400160405280600981526020017f61646d696e70617373000000000000000000000000000000000000000000000081525081526020016001151581525060008073f17f52151ebef6c7334fad080c5704d77216b73273ffffffffffffffffffffffffffffffffffffffff1673ffffffffffffffffffffffffffffffffffffffff16815260200190815260200160002060008201518160000160006101000a81548160ff02191690836003811115620002ae57fe5b021790555060208201518160000160016101000a81548173ffffffffffffffffffffffffffffffffffffffff021916908373ffffffffffffffffffffffffffffffffffffffff160217905550604082015181600101908051906020019062000318929190620004d7565b5060608201518160020160006101000a81548160ff0219169083151502179055509050506040518060800160405280600260038111156200035557fe5b815260200173c5fdf4076b8f3a5357c5e395ab970b5b54098fef73ffffffffffffffffffffffffffffffffffffffff1681526020016040518060400160405280600981526020017f61646d696e70617373000000000000000000000000000000000000000000000081525081526020016001151581525060008073c5fdf4076b8f3a5357c5e395ab970b5b54098fef73ffffffffffffffffffffffffffffffffffffffff1673ffffffffffffffffffffffffffffffffffffffff16815260200190815260200160002060008201518160000160006101000a81548160ff021916908360038111156200044357fe5b021790555060208201518160000160016101000a81548173ffffffffffffffffffffffffffffffffffffffff021916908373ffffffffffffffffffffffffffffffffffffffff1602179055506040820151816001019080519060200190620004ad929190620004d7565b5060608201518160020160006101000a81548160ff0219169083151502179055509050506200057d565b828054600181600116156101000203166002900490600052602060002090601f016020900481019282601f106200051a57805160ff19168380011785556200054b565b828001600101855582156200054b579182015b828111156200054a5782518255916020019190600101906200052d565b5b5090506200055a91906200055e565b5090565b5b80821115620005795760008160009055506001016200055f565b5090565b612c32806200058d6000396000f3fe6080604052600436106101145760003560e01c80638dbe1a17116100a0578063e0f6ef8711610064578063e0f6ef87146108da578063e9300c6c14610905578063f6a99e4c146109d7578063f856f86b14610abf578063fd84cb9714610b1057610114565b80638dbe1a17146105c2578063a87430ba14610613578063aa72479614610715578063b66889f91461080a578063b7ba4fcc1461089c57610114565b80635badbe4c116100e75780635badbe4c146102db578063621df534146103065780637acc0b20146103fb5780638642269e146104e35780638adf19a41461051157610114565b80630c206a7d14610119578063131e407d14610174578063481ea6f4146101a25780634b211cc6146101f3575b600080fd5b34801561012557600080fd5b506101726004803603604081101561013c57600080fd5b81019080803573ffffffffffffffffffffffffffffffffffffffff16906020019092919080359060200190929190505050610b4b565b005b6101a06004803603602081101561018a57600080fd5b8101908080359060200190929190505050610c81565b005b3480156101ae57600080fd5b506101f1600480360360208110156101c557600080fd5b81019080803573ffffffffffffffffffffffffffffffffffffffff169060200190929190505050610e3b565b005b3480156101ff57600080fd5b506102d96004803603604081101561021657600080fd5b81019080803573ffffffffffffffffffffffffffffffffffffffff1690602001909291908035906020019064010000000081111561025357600080fd5b82018360208201111561026557600080fd5b8035906020019184600183028401116401000000008311171561028757600080fd5b91908080601f016020809104026020016040519081016040528093929190818152602001838380828437600081840152601f19601f820116905080830192505050505050509192919290505050611057565b005b3480156102e757600080fd5b506102f06112f1565b6040518082815260200191505060405180910390f35b34801561031257600080fd5b506103556004803603602081101561032957600080fd5b81019080803573ffffffffffffffffffffffffffffffffffffffff1690602001909291905050506112f7565b604051808573ffffffffffffffffffffffffffffffffffffffff16815260200184815260200180602001838152602001828103825284818151815260200191508051906020019080838360005b838110156103bd5780820151818401526020810190506103a2565b50505050905090810190601f1680156103ea5780820380516001836020036101000a031916815260200191505b509550505050505060405180910390f35b34801561040757600080fd5b506104346004803603602081101561041e57600080fd5b81019080803590602001909291905050506113df565b60405180868152602001806020018581526020018473ffffffffffffffffffffffffffffffffffffffff1681526020018315158152602001828103825286818151815260200191508051906020019080838360005b838110156104a4578082015181840152602081019050610489565b50505050905090810190601f1680156104d15780820380516001836020036101000a031916815260200191505b50965050505050505060405180910390f35b61050f600480360360208110156104f957600080fd5b81019080803590602001909291905050506114da565b005b34801561051d57600080fd5b506105606004803603602081101561053457600080fd5b81019080803573ffffffffffffffffffffffffffffffffffffffff1690602001909291905050506118d0565b604051808573ffffffffffffffffffffffffffffffffffffffff16815260200184600381111561058c57fe5b815260200183600381111561059d57fe5b81526020018260028111156105ae57fe5b815260200194505050505060405180910390f35b3480156105ce57600080fd5b50610611600480360360208110156105e557600080fd5b81019080803573ffffffffffffffffffffffffffffffffffffffff169060200190929190505050611947565b005b34801561061f57600080fd5b506106626004803603602081101561063657600080fd5b81019080803573ffffffffffffffffffffffffffffffffffffffff169060200190929190505050611bf8565b6040518085600381111561067257fe5b81526020018473ffffffffffffffffffffffffffffffffffffffff168152602001806020018315158152602001828103825284818151815260200191508051906020019080838360005b838110156106d75780820151818401526020810190506106bc565b50505050905090810190601f1680156107045780820380516001836020036101000a031916815260200191505b509550505050505060405180910390f35b34801561072157600080fd5b506108086004803603606081101561073857600080fd5b81019080803573ffffffffffffffffffffffffffffffffffffffff169060200190929190803560ff1690602001909291908035906020019064010000000081111561078257600080fd5b82018360208201111561079457600080fd5b803590602001918460018302840111640100000000831117156107b657600080fd5b91908080601f016020809104026020016040519081016040528093929190818152602001838380828437600081840152601f19601f820116905080830192505050505050509192919290505050611cfa565b005b34801561081657600080fd5b506108436004803603602081101561082d57600080fd5b8101908080359060200190929190505050611ef4565b604051808573ffffffffffffffffffffffffffffffffffffffff1681526020018473ffffffffffffffffffffffffffffffffffffffff168152602001838152602001821515815260200194505050505060405180910390f35b3480156108a857600080fd5b506108d8600480360360208110156108bf57600080fd5b81019080803560ff169060200190929190505050611f71565b005b3480156108e657600080fd5b506108ef6121db565b6040518082815260200191505060405180910390f35b34801561091157600080fd5b506109d56004803603604081101561092857600080fd5b810190808035906020019064010000000081111561094557600080fd5b82018360208201111561095757600080fd5b8035906020019184600183028401116401000000008311171561097957600080fd5b91908080601f016020809104026020016040519081016040528093929190818152602001838380828437600081840152601f19601f820116905080830192505050505050509192919290803590602001909291905050506121e1565b005b3480156109e357600080fd5b50610abd600480360360408110156109fa57600080fd5b81019080803573ffffffffffffffffffffffffffffffffffffffff16906020019092919080359060200190640100000000811115610a3757600080fd5b820183602082011115610a4957600080fd5b80359060200191846001830284011164010000000083111715610a6b57600080fd5b91908080601f016020809104026020016040519081016040528093929190818152602001838380828437600081840152601f19601f8201169050808301925050505050505091929192905050506123a6565b005b348015610acb57600080fd5b50610b0e60048036036020811015610ae257600080fd5b81019080803573ffffffffffffffffffffffffffffffffffffffff16906020019092919050505061255a565b005b348015610b1c57600080fd5b50610b4960048036036020811015610b3357600080fd5b8101908080359060200190929190505050612703565b005b60066000815480929190600101919050555060405180608001604052803373ffffffffffffffffffffffffffffffffffffffff1681526020018373ffffffffffffffffffffffffffffffffffffffff1681526020018281526020016000151581525060046000600654815260200190815260200160002060008201518160000160006101000a81548173ffffffffffffffffffffffffffffffffffffffff021916908373ffffffffffffffffffffffffffffffffffffffff16021790555060208201518160010160006101000a81548173ffffffffffffffffffffffffffffffffffffffff021916908373ffffffffffffffffffffffffffffffffffffffff1602179055506040820151816002015560608201518160030160006101000a81548160ff0219169083151502179055509050505050565b60026003811115610c8e57fe5b6000803373ffffffffffffffffffffffffffffffffffffffff1673ffffffffffffffffffffffffffffffffffffffff16815260200190815260200160002060000160009054906101000a900460ff166003811115610ce857fe5b14610d3e576040517f08c379a0000000000000000000000000000000000000000000000000000000008152600401808060200182810382526022815260200180612bb86022913960400191505060405180910390fd5b60006002600083815260200190815260200160002090508060030160149054906101000a900460ff1615610dbd576040517f08c379a0000000000000000000000000000000000000000000000000000000008152600401808060200182810382526023815260200180612bda6023913960400191505060405180910390fd5b3373ffffffffffffffffffffffffffffffffffffffff166108fc82600201549081150290604051600060405180830381858888f19350505050158015610e07573d6000803e3d6000fd5b5060016002600084815260200190815260200160002060030160146101000a81548160ff0219169083151502179055505050565b60006003811115610e4857fe5b6000803373ffffffffffffffffffffffffffffffffffffffff1673ffffffffffffffffffffffffffffffffffffffff16815260200190815260200160002060000160009054906101000a900460ff166003811115610ea257fe5b14610ef8576040517f08c379a0000000000000000000000000000000000000000000000000000000008152600401808060200182810382526022815260200180612b6e6022913960400191505060405180910390fd5b6000600360008373ffffffffffffffffffffffffffffffffffffffff1673ffffffffffffffffffffffffffffffffffffffff1681526020019081526020016000209050600280811115610f4757fe5b8160000160169054906101000a900460ff166002811115610f6457fe5b14610fba576040517f08c379a0000000000000000000000000000000000000000000000000000000008152600401808060200182810382526029815260200180612af86029913960400191505060405180910390fd5b8060000160159054906101000a900460ff166000808473ffffffffffffffffffffffffffffffffffffffff1673ffffffffffffffffffffffffffffffffffffffff16815260200190815260200160002060000160006101000a81548160ff0219169083600381111561102857fe5b021790555060008160000160166101000a81548160ff0219169083600281111561104e57fe5b02179055505050565b6000600381111561106457fe5b6000803373ffffffffffffffffffffffffffffffffffffffff1673ffffffffffffffffffffffffffffffffffffffff16815260200190815260200160002060000160009054906101000a900460ff1660038111156110be57fe5b14611114576040517f08c379a0000000000000000000000000000000000000000000000000000000008152600401808060200182810382526022815260200180612b6e6022913960400191505060405180910390fd5b6000808373ffffffffffffffffffffffffffffffffffffffff1673ffffffffffffffffffffffffffffffffffffffff16815260200190815260200160002060020160009054906101000a900460ff16156111b9576040517f08c379a0000000000000000000000000000000000000000000000000000000008152600401808060200182810382526028815260200180612b906028913960400191505060405180910390fd5b6040518060800160405280600060038111156111d157fe5b81526020018373ffffffffffffffffffffffffffffffffffffffff168152602001828152602001600115158152506000808473ffffffffffffffffffffffffffffffffffffffff1673ffffffffffffffffffffffffffffffffffffffff16815260200190815260200160002060008201518160000160006101000a81548160ff0219169083600381111561126157fe5b021790555060208201518160000160016101000a81548173ffffffffffffffffffffffffffffffffffffffff021916908373ffffffffffffffffffffffffffffffffffffffff16021790555060408201518160010190805190602001906112c99291906129a8565b5060608201518160020160006101000a81548160ff0219169083151502179055509050505050565b60065481565b60016020528060005260406000206000915090508060000160009054906101000a900473ffffffffffffffffffffffffffffffffffffffff1690806001015490806002018054600181600116156101000203166002900480601f0160208091040260200160405190810160405280929190818152602001828054600181600116156101000203166002900480156113cf5780601f106113a4576101008083540402835291602001916113cf565b820191906000526020600020905b8154815290600101906020018083116113b257829003601f168201915b5050505050908060030154905084565b6002602052806000526040600020600091509050806000015490806001018054600181600116156101000203166002900480601f0160208091040260200160405190810160405280929190818152602001828054600181600116156101000203166002900480156114915780601f1061146657610100808354040283529160200191611491565b820191906000526020600020905b81548152906001019060200180831161147457829003601f168201915b5050505050908060020154908060030160009054906101000a900473ffffffffffffffffffffffffffffffffffffffff16908060030160149054906101000a900460ff16905085565b600260038111156114e757fe5b6000803373ffffffffffffffffffffffffffffffffffffffff1673ffffffffffffffffffffffffffffffffffffffff16815260200190815260200160002060000160009054906101000a900460ff16600381111561154157fe5b14611597576040517f08c379a0000000000000000000000000000000000000000000000000000000008152600401808060200182810382526022815260200180612bb86022913960400191505060405180910390fd5b61159f612a28565b600260008381526020019081526020016000206040518060a001604052908160008201548152602001600182018054600181600116156101000203166002900480601f0160208091040260200160405190810160405280929190818152602001828054600181600116156101000203166002900480156116605780601f1061163557610100808354040283529160200191611660565b820191906000526020600020905b81548152906001019060200180831161164357829003601f168201915b50505050508152602001600282015481526020016003820160009054906101000a900473ffffffffffffffffffffffffffffffffffffffff1673ffffffffffffffffffffffffffffffffffffffff1673ffffffffffffffffffffffffffffffffffffffff1681526020016003820160149054906101000a900460ff1615151515815250509050600081600001511415611761576040517f08c379a00000000000000000000000000000000000000000000000000000000081526004018080602001828103825260158152602001807f50726f6475637420646f65736e2774206578697374000000000000000000000081525060200191505060405180910390fd5b80608001516117d8576040517f08c379a00000000000000000000000000000000000000000000000000000000081526004018080602001828103825260188152602001807f50726f64756374206973206e6f7420617661696c61626c65000000000000000081525060200191505060405180910390fd5b8060400151341015611852576040517f08c379a00000000000000000000000000000000000000000000000000000000081526004018080602001828103825260198152602001807f4e6f7420656e6f7567682045746865722070726f76696465640000000000000081525060200191505060405180910390fd5b806060015173ffffffffffffffffffffffffffffffffffffffff166108fc349081150290604051600060405180830381858888f1935050505015801561189c573d6000803e3d6000fd5b5060006002600084815260200190815260200160002060030160146101000a81548160ff0219169083151502179055505050565b60036020528060005260406000206000915090508060000160009054906101000a900473ffffffffffffffffffffffffffffffffffffffff16908060000160149054906101000a900460ff16908060000160159054906101000a900460ff16908060000160169054906101000a900460ff16905084565b6000600381111561195457fe5b6000803373ffffffffffffffffffffffffffffffffffffffff1673ffffffffffffffffffffffffffffffffffffffff16815260200190815260200160002060000160009054906101000a900460ff1660038111156119ae57fe5b14611a04576040517f08c379a0000000000000000000000000000000000000000000000000000000008152600401808060200182810382526022815260200180612b6e6022913960400191505060405180910390fd5b600073ffffffffffffffffffffffffffffffffffffffff16600160008373ffffffffffffffffffffffffffffffffffffffff1673ffffffffffffffffffffffffffffffffffffffff16815260200190815260200160002060000160009054906101000a900473ffffffffffffffffffffffffffffffffffffffff1673ffffffffffffffffffffffffffffffffffffffff161415611b09576040517f08c379a00000000000000000000000000000000000000000000000000000000081526004018080602001828103825260148152602001807f53746f726520646f6573206e6f7420657869737400000000000000000000000081525060200191505060405180910390fd5b600160008273ffffffffffffffffffffffffffffffffffffffff1673ffffffffffffffffffffffffffffffffffffffff168152602001908152602001600020600080820160006101000a81549073ffffffffffffffffffffffffffffffffffffffff02191690556001820160009055600282016000611b889190612a6f565b6003820160009055505060026000808373ffffffffffffffffffffffffffffffffffffffff1673ffffffffffffffffffffffffffffffffffffffff16815260200190815260200160002060000160006101000a81548160ff02191690836003811115611bf057fe5b021790555050565b60006020528060005260406000206000915090508060000160009054906101000a900460ff16908060000160019054906101000a900473ffffffffffffffffffffffffffffffffffffffff1690806001018054600181600116156101000203166002900480601f016020809104026020016040519081016040528092919081815260200182805460018160011615610100020316600290048015611cdd5780601f10611cb257610100808354040283529160200191611cdd565b820191906000526020600020905b815481529060010190602001808311611cc057829003601f168201915b5050505050908060020160009054906101000a900460ff16905084565b6000808473ffffffffffffffffffffffffffffffffffffffff1673ffffffffffffffffffffffffffffffffffffffff16815260200190815260200160002060020160009054906101000a900460ff1615611dbc576040517f08c379a00000000000000000000000000000000000000000000000000000000081526004018080602001828103825260178152602001807f5573657220616c7265616479207265676973746572656400000000000000000081525060200191505060405180910390fd5b6040518060800160405280836003811115611dd357fe5b81526020018473ffffffffffffffffffffffffffffffffffffffff168152602001828152602001600115158152506000808573ffffffffffffffffffffffffffffffffffffffff1673ffffffffffffffffffffffffffffffffffffffff16815260200190815260200160002060008201518160000160006101000a81548160ff02191690836003811115611e6357fe5b021790555060208201518160000160016101000a81548173ffffffffffffffffffffffffffffffffffffffff021916908373ffffffffffffffffffffffffffffffffffffffff1602179055506040820151816001019080519060200190611ecb9291906129a8565b5060608201518160020160006101000a81548160ff021916908315150217905550905050505050565b60046020528060005260406000206000915090508060000160009054906101000a900473ffffffffffffffffffffffffffffffffffffffff16908060010160009054906101000a900473ffffffffffffffffffffffffffffffffffffffff16908060020154908060030160009054906101000a900460ff16905084565b806003811115611f7d57fe5b6000803373ffffffffffffffffffffffffffffffffffffffff1673ffffffffffffffffffffffffffffffffffffffff16815260200190815260200160002060000160009054906101000a900460ff166003811115611fd757fe5b141561202e576040517f08c379a0000000000000000000000000000000000000000000000000000000008152600401808060200182810382526021815260200180612b216021913960400191505060405180910390fd5b60405180608001604052803373ffffffffffffffffffffffffffffffffffffffff1681526020016000803373ffffffffffffffffffffffffffffffffffffffff1673ffffffffffffffffffffffffffffffffffffffff16815260200190815260200160002060000160009054906101000a900460ff1660038111156120af57fe5b81526020018260038111156120c057fe5b81526020016002808111156120d157fe5b815250600360003373ffffffffffffffffffffffffffffffffffffffff1673ffffffffffffffffffffffffffffffffffffffff16815260200190815260200160002060008201518160000160006101000a81548173ffffffffffffffffffffffffffffffffffffffff021916908373ffffffffffffffffffffffffffffffffffffffff16021790555060208201518160000160146101000a81548160ff0219169083600381111561217e57fe5b021790555060408201518160000160156101000a81548160ff021916908360038111156121a757fe5b021790555060608201518160000160166101000a81548160ff021916908360028111156121d057fe5b021790555090505050565b60055481565b600160038111156121ee57fe5b6000803373ffffffffffffffffffffffffffffffffffffffff1673ffffffffffffffffffffffffffffffffffffffff16815260200190815260200160002060000160009054906101000a900460ff16600381111561224857fe5b1461229e576040517f08c379a0000000000000000000000000000000000000000000000000000000008152600401808060200182810382526023815260200180612ad56023913960400191505060405180910390fd5b6005600081548092919060010191905055506040518060a0016040528060055481526020018381526020018281526020013373ffffffffffffffffffffffffffffffffffffffff1681526020016000151581525060026000600554815260200190815260200160002060008201518160000155602082015181600101908051906020019061232d9291906129a8565b506040820151816002015560608201518160030160006101000a81548173ffffffffffffffffffffffffffffffffffffffff021916908373ffffffffffffffffffffffffffffffffffffffff16021790555060808201518160030160146101000a81548160ff0219169083151502179055509050505050565b600060038111156123b357fe5b6000803373ffffffffffffffffffffffffffffffffffffffff1673ffffffffffffffffffffffffffffffffffffffff16815260200190815260200160002060000160009054906101000a900460ff16600381111561240d57fe5b14612463576040517f08c379a0000000000000000000000000000000000000000000000000000000008152600401808060200182810382526022815260200180612b6e6022913960400191505060405180910390fd5b60405180608001604052808373ffffffffffffffffffffffffffffffffffffffff168152602001600081526020018281526020016000815250600160008473ffffffffffffffffffffffffffffffffffffffff1673ffffffffffffffffffffffffffffffffffffffff16815260200190815260200160002060008201518160000160006101000a81548173ffffffffffffffffffffffffffffffffffffffff021916908373ffffffffffffffffffffffffffffffffffffffff1602179055506020820151816001015560408201518160020190805190602001906125489291906129a8565b50606082015181600301559050505050565b6000600381111561256757fe5b6000803373ffffffffffffffffffffffffffffffffffffffff1673ffffffffffffffffffffffffffffffffffffffff16815260200190815260200160002060000160009054906101000a900460ff1660038111156125c157fe5b14612617576040517f08c379a0000000000000000000000000000000000000000000000000000000008152600401808060200182810382526022815260200180612b6e6022913960400191505060405180910390fd5b6000600360008373ffffffffffffffffffffffffffffffffffffffff1673ffffffffffffffffffffffffffffffffffffffff168152602001908152602001600020905060028081111561266657fe5b8160000160169054906101000a900460ff16600281111561268357fe5b146126d9576040517f08c379a0000000000000000000000000000000000000000000000000000000008152600401808060200182810382526029815260200180612af86029913960400191505060405180910390fd5b60018160000160166101000a81548160ff021916908360028111156126fa57fe5b02179055505050565b60006004600083815260200190815260200160002090506000600260008360020154815260200190815260200160002090508160030160009054906101000a900460ff16156127ba576040517f08c379a000000000000000000000000000000000000000000000000000000000815260040180806020018281038252601c8152602001807f5265717565737420697320616c726561647920636f6e6669726d65640000000081525060200191505060405180910390fd5b8160000160009054906101000a900473ffffffffffffffffffffffffffffffffffffffff1673ffffffffffffffffffffffffffffffffffffffff163373ffffffffffffffffffffffffffffffffffffffff16148061286757508160010160009054906101000a900473ffffffffffffffffffffffffffffffffffffffff1673ffffffffffffffffffffffffffffffffffffffff163373ffffffffffffffffffffffffffffffffffffffff16145b6128bc576040517f08c379a000000000000000000000000000000000000000000000000000000000815260040180806020018281038252602c815260200180612b42602c913960400191505060405180910390fd5b8060030160149054906101000a900460ff1615612941576040517f08c379a000000000000000000000000000000000000000000000000000000000815260040180806020018281038252601c8152602001807f50726f6475637420697320616c726561647920617661696c61626c650000000081525060200191505060405180910390fd5b6001600260008460020154815260200190815260200160002060030160146101000a81548160ff02191690831515021790555060016004600085815260200190815260200160002060030160006101000a81548160ff021916908315150217905550505050565b828054600181600116156101000203166002900490600052602060002090601f016020900481019282601f106129e957805160ff1916838001178555612a17565b82800160010185558215612a17579182015b82811115612a165782518255916020019190600101906129fb565b5b509050612a249190612ab7565b5090565b6040518060a00160405280600081526020016060815260200160008152602001600073ffffffffffffffffffffffffffffffffffffffff1681526020016000151581525090565b50805460018160011615610100020316600290046000825580601f10612a955750612ab4565b601f016020900490600052602060002090810190612ab39190612ab7565b5b50565b5b80821115612ad0576000816000905550600101612ab8565b509056fe4f6e6c792073656c6c65722063616e20706572666f726d207468697320616374696f6e546865206170706c69636174696f6e2068617320616c7265616479206265656e207265766965776564596f7520616c7265616479206861766520746865206465736972656420726f6c654f6e6c792073656e646572206f722072656365697665722063616e20636f6e6669726d2064656c69766572794f6e6c792061646d696e2063616e20706572666f726d207468697320616374696f6e5573657220616c726561647920726567697374657265642c207570646174652068697320726f6c654f6e6c792062757965722063616e20706572666f726d207468697320616374696f6e50726f64756374206973206e6f7420617661696c61626c6520666f722072657475726ea264697066735822122014a54d09cb8a20f101dfe7f864ee4c3a67931bff51139270c7eca2c862eeeb6d64736f6c63430007000033",
  "immutableReferences": {},
  "source": "// SPDX-License-Identifier: ISC\r\npragma solidity >=0.4.22 <0.9.0;\r\n\r\ncontract BlockStore {\r\n    enum Role {\r\n        Admin,\r\n        Seller,\r\n        Buyer,\r\n        Supplier\r\n    }\r\n\r\n    enum ReqStatus {\r\n        Approved,\r\n        Rejected,\r\n        Waiting\r\n    }\r\n\r\n    struct User {\r\n        Role role;\r\n        address userAddress;\r\n        string password;\r\n        bool isRegistered;\r\n    }\r\n\r\n    struct Store {\r\n        address owner;\r\n        uint rating;\r\n        string name;\r\n        uint balance;\r\n    }\r\n\r\n    struct Product {\r\n        uint id;\r\n        string name;\r\n        uint price;\r\n        address seller;\r\n        bool isAvailable;\r\n    }\r\n\r\n    struct RoleChangeRequest {\r\n        address userAddress;\r\n        Role currentRole;\r\n        Role desiredRole;\r\n        ReqStatus reqStatus;\r\n    }\r\n\r\n    struct DeliveryRequest {\r\n        address sender;\r\n        address receiver;\r\n        uint productId;\r\n        bool isDelivered;\r\n    }\r\n\r\n    mapping(address => User) public users;\r\n    mapping(address => Store) public stores;\r\n    mapping(uint => Product) public products;\r\n    \r\n    mapping(address => RoleChangeRequest) public roleChangeRequests;\r\n    mapping(uint => DeliveryRequest) public deliveryRequests;\r\n\r\n    uint public productCount;\r\n    uint public requestCount;\r\n\r\n    constructor() {\r\n        users[0x627306090abaB3A6e1400e9345bC60c78a8BEf57] = User(Role.Admin, 0x627306090abaB3A6e1400e9345bC60c78a8BEf57, 'adminpass', true);\r\n        users[0xf17f52151EbEF6C7334FAD080c5704D77216b732] = User(Role.Seller, 0xf17f52151EbEF6C7334FAD080c5704D77216b732, 'adminpass', true);\r\n        users[0xC5fdf4076b8F3A5357c5E395ab970B5B54098Fef] = User(Role.Buyer, 0xC5fdf4076b8F3A5357c5E395ab970B5B54098Fef, 'adminpass', true);\r\n    }\r\n\r\n    modifier onlyAdmin() {\r\n        require(users[msg.sender].role == Role.Admin, \"Only admin can perform this action\");\r\n        _;\r\n    }\r\n\r\n    modifier onlySeller() {\r\n        require(users[msg.sender].role == Role.Seller, \"Only seller can perform this action\");\r\n        _;\r\n    }\r\n\r\n    modifier onlyBuyer() {\r\n        require(users[msg.sender].role == Role.Buyer, \"Only buyer can perform this action\");\r\n        _;\r\n    }\r\n\r\n    modifier onlySupplier() {\r\n        require(users[msg.sender].role == Role.Supplier, \"Only supplier can perform this action\");\r\n        _;\r\n    }\r\n\r\n    function createUser(address _userAddress, Role _role, string memory _password) public {\r\n        require(!users[_userAddress].isRegistered, \"User already registered\");\r\n        users[_userAddress] = User(_role, _userAddress, _password, true);\r\n    }\r\n\r\n    function createStore(address _storeAddress, string memory _name) public onlyAdmin {\r\n        stores[_storeAddress] = Store(_storeAddress, 0, _name, 0);\r\n    }\r\n\r\n    function createAdmin(address _adminAddress, string memory _password) public onlyAdmin {\r\n        require(!users[_adminAddress].isRegistered, \"User already registered, update his role\");\r\n        users[_adminAddress] = User(Role.Admin, _adminAddress, _password, true);\r\n    }\r\n\r\n    function removeStore(address _storeAddress) public onlyAdmin {\r\n        require(stores[_storeAddress].owner != address(0), \"Store does not exist\");\r\n        delete stores[_storeAddress];\r\n\r\n        users[_storeAddress].role = Role.Buyer;\r\n    }\r\n\r\n    function createProduct(string memory _name, uint _price) public onlySeller {\r\n        productCount++;\r\n        products[productCount] = Product(productCount, _name, _price, msg.sender, false);\r\n    }\r\n\r\n    function buyProduct(uint _productId) public payable onlyBuyer {\r\n        Product memory product = products[_productId];\r\n        require(product.id != 0, \"Product doesn't exist\");\r\n        require(product.isAvailable, \"Product is not available\");\r\n        require(msg.value >= product.price, \"Not enough Ether provided\");\r\n\r\n        payable(product.seller).transfer(msg.value);\r\n        products[_productId].isAvailable = false;\r\n    }\r\n\r\n    function returnProduct(uint _productId) public payable onlyBuyer {\r\n        Product storage product = products[_productId];\r\n        require(!product.isAvailable, \"Product is not available for return\");\r\n\r\n        payable(msg.sender).transfer(product.price);\r\n\r\n        products[_productId].isAvailable = true;\r\n    }\r\n\r\n    function createRequestRoleChange(Role _desiredRole) public {\r\n        require(users[msg.sender].role != _desiredRole, \"You already have the desired role\");\r\n        roleChangeRequests[msg.sender] = RoleChangeRequest(msg.sender, users[msg.sender].role, _desiredRole, ReqStatus.Waiting);\r\n    }\r\n\r\n    function approveRoleChange(address _userAddress) public onlyAdmin {\r\n        RoleChangeRequest storage request = roleChangeRequests[_userAddress];\r\n        require(request.reqStatus == ReqStatus.Waiting, \"The application has already been reviewed\");\r\n        users[_userAddress].role = request.desiredRole;\r\n        request.reqStatus = ReqStatus.Approved;\r\n    }\r\n\r\n    function rejectRoleChange(address _userAddress) public onlyAdmin {\r\n        RoleChangeRequest storage request = roleChangeRequests[_userAddress];\r\n        require(request.reqStatus == ReqStatus.Waiting, \"The application has already been reviewed\");\r\n        request.reqStatus = ReqStatus.Rejected;\r\n    }\r\n\r\n    function createDeliveryRequest(address _receiver, uint _productId) public {\r\n        requestCount++;\r\n        deliveryRequests[requestCount] = DeliveryRequest(msg.sender, _receiver, _productId, false);\r\n    }\r\n\r\n    function confirmDelivery(uint _requestId) public {\r\n        DeliveryRequest storage request = deliveryRequests[_requestId];\r\n        Product storage product = products[request.productId];\r\n        \r\n        require(!request.isDelivered, \"Request is already confirmed\");\r\n        require(msg.sender == request.sender || msg.sender == request.receiver, \"Only sender or receiver can confirm delivery\");\r\n        require(!product.isAvailable, \"Product is already available\");\r\n\r\n        products[request.productId].isAvailable = true;\r\n        deliveryRequests[_requestId].isDelivered = true;\r\n    }\r\n}\r\n",
  "sourcePath": "C:\\Users\\CORTEZZ\\source\\repos\\BlockStore\\server\\contracts\\BlockStore.sol",
  "compiler": {
    "name": "solc",
    "version": "0.7.0+commit.9e61f92b.Emscripten.clang"
  },
  "schemaVersion": "3.4.16",
  "updatedAt": "2024-05-05T17:36:16.779Z",
  "networkType": "ethereum",
  "devdoc": {
    "kind": "dev",
    "methods": {},
    "version": 1
  },
  "userdoc": {
    "kind": "user",
    "methods": {},
    "version": 1
  }
}