{
  "contractName": "BlockStore",
  "abi": [
    {
      "inputs": [
        {
          "internalType": "uint256",
          "name": "",
          "type": "uint256"
        }
      ],
      "name": "deliveryRequests",
      "outputs": [
        {
          "internalType": "address",
          "name": "sender",
          "type": "address"
        },
        {
          "internalType": "address",
          "name": "receiver",
          "type": "address"
        },
        {
          "internalType": "uint256",
          "name": "productId",
          "type": "uint256"
        },
        {
          "internalType": "bool",
          "name": "isDelivered",
          "type": "bool"
        }
      ],
      "stateMutability": "view",
      "type": "function",
      "constant": true
    },
    {
      "inputs": [
        {
          "internalType": "uint256",
          "name": "",
          "type": "uint256"
        }
      ],
      "name": "products",
      "outputs": [
        {
          "internalType": "uint256",
          "name": "id",
          "type": "uint256"
        },
        {
          "internalType": "string",
          "name": "name",
          "type": "string"
        },
        {
          "internalType": "uint256",
          "name": "price",
          "type": "uint256"
        },
        {
          "internalType": "address",
          "name": "seller",
          "type": "address"
        },
        {
          "internalType": "bool",
          "name": "isAvailable",
          "type": "bool"
        }
      ],
      "stateMutability": "view",
      "type": "function",
      "constant": true
    },
    {
      "inputs": [
        {
          "internalType": "address",
          "name": "",
          "type": "address"
        }
      ],
      "name": "roleChangeRequests",
      "outputs": [
        {
          "internalType": "address",
          "name": "userAddress",
          "type": "address"
        },
        {
          "internalType": "enum BlockStore.Role",
          "name": "currentRole",
          "type": "uint8"
        },
        {
          "internalType": "enum BlockStore.Role",
          "name": "desiredRole",
          "type": "uint8"
        },
        {
          "internalType": "enum BlockStore.ReqStatus",
          "name": "reqStatus",
          "type": "uint8"
        }
      ],
      "stateMutability": "view",
      "type": "function",
      "constant": true
    },
    {
      "inputs": [
        {
          "internalType": "address",
          "name": "",
          "type": "address"
        }
      ],
      "name": "stores",
      "outputs": [
        {
          "internalType": "address",
          "name": "owner",
          "type": "address"
        },
        {
          "internalType": "uint256",
          "name": "rating",
          "type": "uint256"
        },
        {
          "internalType": "string",
          "name": "name",
          "type": "string"
        },
        {
          "internalType": "uint256",
          "name": "balance",
          "type": "uint256"
        }
      ],
      "stateMutability": "view",
      "type": "function",
      "constant": true
    },
    {
      "inputs": [
        {
          "internalType": "address",
          "name": "",
          "type": "address"
        }
      ],
      "name": "users",
      "outputs": [
        {
          "internalType": "enum BlockStore.Role",
          "name": "role",
          "type": "uint8"
        },
        {
          "internalType": "address",
          "name": "userAddress",
          "type": "address"
        },
        {
          "internalType": "string",
          "name": "password",
          "type": "string"
        },
        {
          "internalType": "bool",
          "name": "isRegistered",
          "type": "bool"
        }
      ],
      "stateMutability": "view",
      "type": "function",
      "constant": true
    },
    {
      "inputs": [
        {
          "internalType": "address",
          "name": "_userAddress",
          "type": "address"
        },
        {
          "internalType": "enum BlockStore.Role",
          "name": "_role",
          "type": "uint8"
        },
        {
          "internalType": "string",
          "name": "_password",
          "type": "string"
        }
      ],
      "name": "createUser",
      "outputs": [],
      "stateMutability": "nonpayable",
      "type": "function"
    },
    {
      "inputs": [
        {
          "internalType": "string",
          "name": "_name",
          "type": "string"
        }
      ],
      "name": "createStore",
      "outputs": [],
      "stateMutability": "nonpayable",
      "type": "function"
    },
    {
      "inputs": [
        {
          "internalType": "address",
          "name": "_adminAddress",
          "type": "address"
        },
        {
          "internalType": "string",
          "name": "_password",
          "type": "string"
        }
      ],
      "name": "createAdmin",
      "outputs": [],
      "stateMutability": "nonpayable",
      "type": "function"
    },
    {
      "inputs": [
        {
          "internalType": "address",
          "name": "_storeAddress",
          "type": "address"
        }
      ],
      "name": "removeStore",
      "outputs": [],
      "stateMutability": "nonpayable",
      "type": "function"
    },
    {
      "inputs": [
        {
          "internalType": "string",
          "name": "_name",
          "type": "string"
        },
        {
          "internalType": "uint256",
          "name": "_price",
          "type": "uint256"
        }
      ],
      "name": "createProduct",
      "outputs": [],
      "stateMutability": "nonpayable",
      "type": "function"
    },
    {
      "inputs": [
        {
          "internalType": "uint256",
          "name": "_productId",
          "type": "uint256"
        }
      ],
      "name": "buyProduct",
      "outputs": [],
      "stateMutability": "payable",
      "type": "function",
      "payable": true
    },
    {
      "inputs": [
        {
          "internalType": "uint256",
          "name": "_productId",
          "type": "uint256"
        }
      ],
      "name": "returnProduct",
      "outputs": [],
      "stateMutability": "payable",
      "type": "function",
      "payable": true
    },
    {
      "inputs": [
        {
          "internalType": "enum BlockStore.Role",
          "name": "_desiredRole",
          "type": "uint8"
        }
      ],
      "name": "createRequestRoleChange",
      "outputs": [],
      "stateMutability": "nonpayable",
      "type": "function"
    },
    {
      "inputs": [
        {
          "internalType": "address",
          "name": "_userAddress",
          "type": "address"
        }
      ],
      "name": "approveRoleChange",
      "outputs": [],
      "stateMutability": "nonpayable",
      "type": "function"
    },
    {
      "inputs": [
        {
          "internalType": "address",
          "name": "_userAddress",
          "type": "address"
        }
      ],
      "name": "rejectRoleChange",
      "outputs": [],
      "stateMutability": "nonpayable",
      "type": "function"
    },
    {
      "inputs": [
        {
          "internalType": "address",
          "name": "_receiver",
          "type": "address"
        },
        {
          "internalType": "uint256",
          "name": "_productId",
          "type": "uint256"
        }
      ],
      "name": "createDeliveryRequest",
      "outputs": [],
      "stateMutability": "nonpayable",
      "type": "function"
    },
    {
      "inputs": [
        {
          "internalType": "uint256",
          "name": "_requestId",
          "type": "uint256"
        }
      ],
      "name": "confirmDelivery",
      "outputs": [],
      "stateMutability": "nonpayable",
      "type": "function"
    }
  ],
  "bytecode": "0x608060405234801561001057600080fd5b50612a9d806100206000396000f3fe6080604052600436106100fe5760003560e01c80638dbe1a1711610095578063b7ba4fcc11610064578063b7ba4fcc1461085b578063d0e04fe314610899578063e9300c6c14610961578063f856f86b14610a33578063fd84cb9714610a84576100fe565b80638dbe1a1714610581578063a87430ba146105d2578063aa724796146106d4578063b66889f9146107c9576100fe565b8063621df534116100d1578063621df534146102c55780637acc0b20146103ba5780638642269e146104a25780638adf19a4146104d0576100fe565b80630c206a7d14610103578063131e407d1461015e578063481ea6f41461018c5780634b211cc6146101dd575b600080fd5b34801561010f57600080fd5b5061015c6004803603604081101561012657600080fd5b81019080803573ffffffffffffffffffffffffffffffffffffffff16906020019092919080359060200190929190505050610abf565b005b61018a6004803603602081101561017457600080fd5b8101908080359060200190929190505050610bf5565b005b34801561019857600080fd5b506101db600480360360208110156101af57600080fd5b81019080803573ffffffffffffffffffffffffffffffffffffffff169060200190929190505050610d9c565b005b3480156101e957600080fd5b506102c36004803603604081101561020057600080fd5b81019080803573ffffffffffffffffffffffffffffffffffffffff1690602001909291908035906020019064010000000081111561023d57600080fd5b82018360208201111561024f57600080fd5b8035906020019184600183028401116401000000008311171561027157600080fd5b91908080601f016020809104026020016040519081016040528093929190818152602001838380828437600081840152601f19601f820116905080830192505050505050509192919290505050610fb8565b005b3480156102d157600080fd5b50610314600480360360208110156102e857600080fd5b81019080803573ffffffffffffffffffffffffffffffffffffffff169060200190929190505050611252565b604051808573ffffffffffffffffffffffffffffffffffffffff16815260200184815260200180602001838152602001828103825284818151815260200191508051906020019080838360005b8381101561037c578082015181840152602081019050610361565b50505050905090810190601f1680156103a95780820380516001836020036101000a031916815260200191505b509550505050505060405180910390f35b3480156103c657600080fd5b506103f3600480360360208110156103dd57600080fd5b810190808035906020019092919050505061133a565b60405180868152602001806020018581526020018473ffffffffffffffffffffffffffffffffffffffff1681526020018315158152602001828103825286818151815260200191508051906020019080838360005b83811015610463578082015181840152602081019050610448565b50505050905090810190601f1680156104905780820380516001836020036101000a031916815260200191505b50965050505050505060405180910390f35b6104ce600480360360208110156104b857600080fd5b8101908080359060200190929190505050611435565b005b3480156104dc57600080fd5b5061051f600480360360208110156104f357600080fd5b81019080803573ffffffffffffffffffffffffffffffffffffffff16906020019092919050505061180d565b604051808573ffffffffffffffffffffffffffffffffffffffff16815260200184600381111561054b57fe5b815260200183600381111561055c57fe5b815260200182600281111561056d57fe5b815260200194505050505060405180910390f35b34801561058d57600080fd5b506105d0600480360360208110156105a457600080fd5b81019080803573ffffffffffffffffffffffffffffffffffffffff169060200190929190505050611884565b005b3480156105de57600080fd5b50610621600480360360208110156105f557600080fd5b81019080803573ffffffffffffffffffffffffffffffffffffffff169060200190929190505050611b35565b6040518085600381111561063157fe5b81526020018473ffffffffffffffffffffffffffffffffffffffff168152602001806020018315158152602001828103825284818151815260200191508051906020019080838360005b8381101561069657808201518184015260208101905061067b565b50505050905090810190601f1680156106c35780820380516001836020036101000a031916815260200191505b509550505050505060405180910390f35b3480156106e057600080fd5b506107c7600480360360608110156106f757600080fd5b81019080803573ffffffffffffffffffffffffffffffffffffffff169060200190929190803560ff1690602001909291908035906020019064010000000081111561074157600080fd5b82018360208201111561075357600080fd5b8035906020019184600183028401116401000000008311171561077557600080fd5b91908080601f016020809104026020016040519081016040528093929190818152602001838380828437600081840152601f19601f820116905080830192505050505050509192919290505050611c37565b005b3480156107d557600080fd5b50610802600480360360208110156107ec57600080fd5b8101908080359060200190929190505050611e31565b604051808573ffffffffffffffffffffffffffffffffffffffff1681526020018473ffffffffffffffffffffffffffffffffffffffff168152602001838152602001821515815260200194505050505060405180910390f35b34801561086757600080fd5b506108976004803603602081101561087e57600080fd5b81019080803560ff169060200190929190505050611eae565b005b3480156108a557600080fd5b5061095f600480360360208110156108bc57600080fd5b81019080803590602001906401000000008111156108d957600080fd5b8201836020820111156108eb57600080fd5b8035906020019184600183028401116401000000008311171561090d57600080fd5b91908080601f016020809104026020016040519081016040528093929190818152602001838380828437600081840152601f19601f820116905080830192505050505050509192919290505050612118565b005b34801561096d57600080fd5b50610a316004803603604081101561098457600080fd5b81019080803590602001906401000000008111156109a157600080fd5b8201836020820111156109b357600080fd5b803590602001918460018302840111640100000000831117156109d557600080fd5b91908080601f016020809104026020016040519081016040528093929190818152602001838380828437600081840152601f19601f820116905080830192505050505050509192919290803590602001909291905050506122cb565b005b348015610a3f57600080fd5b50610a8260048036036020811015610a5657600080fd5b81019080803573ffffffffffffffffffffffffffffffffffffffff169060200190929190505050612490565b005b348015610a9057600080fd5b50610abd60048036036020811015610aa757600080fd5b8101908080359060200190929190505050612639565b005b60066000815480929190600101919050555060405180608001604052803373ffffffffffffffffffffffffffffffffffffffff1681526020018373ffffffffffffffffffffffffffffffffffffffff1681526020018281526020016000151581525060046000600654815260200190815260200160002060008201518160000160006101000a81548173ffffffffffffffffffffffffffffffffffffffff021916908373ffffffffffffffffffffffffffffffffffffffff16021790555060208201518160010160006101000a81548173ffffffffffffffffffffffffffffffffffffffff021916908373ffffffffffffffffffffffffffffffffffffffff1602179055506040820151816002015560608201518160030160006101000a81548160ff0219169083151502179055509050505050565b60026003811115610c0257fe5b6000803373ffffffffffffffffffffffffffffffffffffffff1673ffffffffffffffffffffffffffffffffffffffff16815260200190815260200160002060000160009054906101000a900460ff166003811115610c5c57fe5b14610cb2576040517f08c379a0000000000000000000000000000000000000000000000000000000008152600401808060200182810382526022815260200180612a236022913960400191505060405180910390fd5b60006002600083815260200190815260200160002090508060030160149054906101000a900460ff16610d30576040517f08c379a0000000000000000000000000000000000000000000000000000000008152600401808060200182810382526023815260200180612a456023913960400191505060405180910390fd5b3373ffffffffffffffffffffffffffffffffffffffff166108fc82600201549081150290604051600060405180830381858888f19350505050158015610d7a573d6000803e3d6000fd5b5060018160030160146101000a81548160ff0219169083151502179055505050565b60006003811115610da957fe5b6000803373ffffffffffffffffffffffffffffffffffffffff1673ffffffffffffffffffffffffffffffffffffffff16815260200190815260200160002060000160009054906101000a900460ff166003811115610e0357fe5b14610e59576040517f08c379a00000000000000000000000000000000000000000000000000000000081526004018080602001828103825260228152602001806129d96022913960400191505060405180910390fd5b6000600360008373ffffffffffffffffffffffffffffffffffffffff1673ffffffffffffffffffffffffffffffffffffffff1681526020019081526020016000209050600280811115610ea857fe5b8160000160169054906101000a900460ff166002811115610ec557fe5b14610f1b576040517f08c379a00000000000000000000000000000000000000000000000000000000081526004018080602001828103825260298152602001806129636029913960400191505060405180910390fd5b8060000160159054906101000a900460ff166000808473ffffffffffffffffffffffffffffffffffffffff1673ffffffffffffffffffffffffffffffffffffffff16815260200190815260200160002060000160006101000a81548160ff02191690836003811115610f8957fe5b021790555060008160000160166101000a81548160ff02191690836002811115610faf57fe5b02179055505050565b60006003811115610fc557fe5b6000803373ffffffffffffffffffffffffffffffffffffffff1673ffffffffffffffffffffffffffffffffffffffff16815260200190815260200160002060000160009054906101000a900460ff16600381111561101f57fe5b14611075576040517f08c379a00000000000000000000000000000000000000000000000000000000081526004018080602001828103825260228152602001806129d96022913960400191505060405180910390fd5b6000808373ffffffffffffffffffffffffffffffffffffffff1673ffffffffffffffffffffffffffffffffffffffff16815260200190815260200160002060020160009054906101000a900460ff161561111a576040517f08c379a00000000000000000000000000000000000000000000000000000000081526004018080602001828103825260288152602001806129fb6028913960400191505060405180910390fd5b60405180608001604052806000600381111561113257fe5b81526020018373ffffffffffffffffffffffffffffffffffffffff168152602001828152602001600115158152506000808473ffffffffffffffffffffffffffffffffffffffff1673ffffffffffffffffffffffffffffffffffffffff16815260200190815260200160002060008201518160000160006101000a81548160ff021916908360038111156111c257fe5b021790555060208201518160000160016101000a81548173ffffffffffffffffffffffffffffffffffffffff021916908373ffffffffffffffffffffffffffffffffffffffff160217905550604082015181600101908051906020019061122a929190612813565b5060608201518160020160006101000a81548160ff0219169083151502179055509050505050565b60016020528060005260406000206000915090508060000160009054906101000a900473ffffffffffffffffffffffffffffffffffffffff1690806001015490806002018054600181600116156101000203166002900480601f01602080910402602001604051908101604052809291908181526020018280546001816001161561010002031660029004801561132a5780601f106112ff5761010080835404028352916020019161132a565b820191906000526020600020905b81548152906001019060200180831161130d57829003601f168201915b5050505050908060030154905084565b6002602052806000526040600020600091509050806000015490806001018054600181600116156101000203166002900480601f0160208091040260200160405190810160405280929190818152602001828054600181600116156101000203166002900480156113ec5780601f106113c1576101008083540402835291602001916113ec565b820191906000526020600020905b8154815290600101906020018083116113cf57829003601f168201915b5050505050908060020154908060030160009054906101000a900473ffffffffffffffffffffffffffffffffffffffff16908060030160149054906101000a900460ff16905085565b6002600381111561144257fe5b6000803373ffffffffffffffffffffffffffffffffffffffff1673ffffffffffffffffffffffffffffffffffffffff16815260200190815260200160002060000160009054906101000a900460ff16600381111561149c57fe5b146114f2576040517f08c379a0000000000000000000000000000000000000000000000000000000008152600401808060200182810382526022815260200180612a236022913960400191505060405180910390fd5b6114fa612893565b600260008381526020019081526020016000206040518060a001604052908160008201548152602001600182018054600181600116156101000203166002900480601f0160208091040260200160405190810160405280929190818152602001828054600181600116156101000203166002900480156115bb5780601f10611590576101008083540402835291602001916115bb565b820191906000526020600020905b81548152906001019060200180831161159e57829003601f168201915b50505050508152602001600282015481526020016003820160009054906101000a900473ffffffffffffffffffffffffffffffffffffffff1673ffffffffffffffffffffffffffffffffffffffff1673ffffffffffffffffffffffffffffffffffffffff1681526020016003820160149054906101000a900460ff16151515158152505090506000816000015114156116bc576040517f08c379a00000000000000000000000000000000000000000000000000000000081526004018080602001828103825260158152602001807f50726f6475637420646f65736e2774206578697374000000000000000000000081525060200191505060405180910390fd5b8060800151611733576040517f08c379a00000000000000000000000000000000000000000000000000000000081526004018080602001828103825260188152602001807f50726f64756374206973206e6f7420617661696c61626c65000000000000000081525060200191505060405180910390fd5b80604001513410156117ad576040517f08c379a00000000000000000000000000000000000000000000000000000000081526004018080602001828103825260198152602001807f4e6f7420656e6f7567682045746865722070726f76696465640000000000000081525060200191505060405180910390fd5b806060015173ffffffffffffffffffffffffffffffffffffffff166108fc349081150290604051600060405180830381858888f193505050501580156117f7573d6000803e3d6000fd5b5060008160800190151590811515815250505050565b60036020528060005260406000206000915090508060000160009054906101000a900473ffffffffffffffffffffffffffffffffffffffff16908060000160149054906101000a900460ff16908060000160159054906101000a900460ff16908060000160169054906101000a900460ff16905084565b6000600381111561189157fe5b6000803373ffffffffffffffffffffffffffffffffffffffff1673ffffffffffffffffffffffffffffffffffffffff16815260200190815260200160002060000160009054906101000a900460ff1660038111156118eb57fe5b14611941576040517f08c379a00000000000000000000000000000000000000000000000000000000081526004018080602001828103825260228152602001806129d96022913960400191505060405180910390fd5b600073ffffffffffffffffffffffffffffffffffffffff16600160008373ffffffffffffffffffffffffffffffffffffffff1673ffffffffffffffffffffffffffffffffffffffff16815260200190815260200160002060000160009054906101000a900473ffffffffffffffffffffffffffffffffffffffff1673ffffffffffffffffffffffffffffffffffffffff161415611a46576040517f08c379a00000000000000000000000000000000000000000000000000000000081526004018080602001828103825260148152602001807f53746f726520646f6573206e6f7420657869737400000000000000000000000081525060200191505060405180910390fd5b600160008273ffffffffffffffffffffffffffffffffffffffff1673ffffffffffffffffffffffffffffffffffffffff168152602001908152602001600020600080820160006101000a81549073ffffffffffffffffffffffffffffffffffffffff02191690556001820160009055600282016000611ac591906128da565b6003820160009055505060026000808373ffffffffffffffffffffffffffffffffffffffff1673ffffffffffffffffffffffffffffffffffffffff16815260200190815260200160002060000160006101000a81548160ff02191690836003811115611b2d57fe5b021790555050565b60006020528060005260406000206000915090508060000160009054906101000a900460ff16908060000160019054906101000a900473ffffffffffffffffffffffffffffffffffffffff1690806001018054600181600116156101000203166002900480601f016020809104026020016040519081016040528092919081815260200182805460018160011615610100020316600290048015611c1a5780601f10611bef57610100808354040283529160200191611c1a565b820191906000526020600020905b815481529060010190602001808311611bfd57829003601f168201915b5050505050908060020160009054906101000a900460ff16905084565b6000808473ffffffffffffffffffffffffffffffffffffffff1673ffffffffffffffffffffffffffffffffffffffff16815260200190815260200160002060020160009054906101000a900460ff1615611cf9576040517f08c379a00000000000000000000000000000000000000000000000000000000081526004018080602001828103825260178152602001807f5573657220616c7265616479207265676973746572656400000000000000000081525060200191505060405180910390fd5b6040518060800160405280836003811115611d1057fe5b81526020018473ffffffffffffffffffffffffffffffffffffffff168152602001828152602001600115158152506000808573ffffffffffffffffffffffffffffffffffffffff1673ffffffffffffffffffffffffffffffffffffffff16815260200190815260200160002060008201518160000160006101000a81548160ff02191690836003811115611da057fe5b021790555060208201518160000160016101000a81548173ffffffffffffffffffffffffffffffffffffffff021916908373ffffffffffffffffffffffffffffffffffffffff1602179055506040820151816001019080519060200190611e08929190612813565b5060608201518160020160006101000a81548160ff021916908315150217905550905050505050565b60046020528060005260406000206000915090508060000160009054906101000a900473ffffffffffffffffffffffffffffffffffffffff16908060010160009054906101000a900473ffffffffffffffffffffffffffffffffffffffff16908060020154908060030160009054906101000a900460ff16905084565b806003811115611eba57fe5b6000803373ffffffffffffffffffffffffffffffffffffffff1673ffffffffffffffffffffffffffffffffffffffff16815260200190815260200160002060000160009054906101000a900460ff166003811115611f1457fe5b1415611f6b576040517f08c379a000000000000000000000000000000000000000000000000000000000815260040180806020018281038252602181526020018061298c6021913960400191505060405180910390fd5b60405180608001604052803373ffffffffffffffffffffffffffffffffffffffff1681526020016000803373ffffffffffffffffffffffffffffffffffffffff1673ffffffffffffffffffffffffffffffffffffffff16815260200190815260200160002060000160009054906101000a900460ff166003811115611fec57fe5b8152602001826003811115611ffd57fe5b815260200160028081111561200e57fe5b815250600360003373ffffffffffffffffffffffffffffffffffffffff1673ffffffffffffffffffffffffffffffffffffffff16815260200190815260200160002060008201518160000160006101000a81548173ffffffffffffffffffffffffffffffffffffffff021916908373ffffffffffffffffffffffffffffffffffffffff16021790555060208201518160000160146101000a81548160ff021916908360038111156120bb57fe5b021790555060408201518160000160156101000a81548160ff021916908360038111156120e457fe5b021790555060608201518160000160166101000a81548160ff0219169083600281111561210d57fe5b021790555090505050565b6000600381111561212557fe5b6000803373ffffffffffffffffffffffffffffffffffffffff1673ffffffffffffffffffffffffffffffffffffffff16815260200190815260200160002060000160009054906101000a900460ff16600381111561217f57fe5b146121d5576040517f08c379a00000000000000000000000000000000000000000000000000000000081526004018080602001828103825260228152602001806129d96022913960400191505060405180910390fd5b60405180608001604052803373ffffffffffffffffffffffffffffffffffffffff168152602001600081526020018281526020016000815250600160003373ffffffffffffffffffffffffffffffffffffffff1673ffffffffffffffffffffffffffffffffffffffff16815260200190815260200160002060008201518160000160006101000a81548173ffffffffffffffffffffffffffffffffffffffff021916908373ffffffffffffffffffffffffffffffffffffffff1602179055506020820151816001015560408201518160020190805190602001906122ba929190612813565b506060820151816003015590505050565b600160038111156122d857fe5b6000803373ffffffffffffffffffffffffffffffffffffffff1673ffffffffffffffffffffffffffffffffffffffff16815260200190815260200160002060000160009054906101000a900460ff16600381111561233257fe5b14612388576040517f08c379a00000000000000000000000000000000000000000000000000000000081526004018080602001828103825260238152602001806129406023913960400191505060405180910390fd5b6005600081548092919060010191905055506040518060a0016040528060055481526020018381526020018281526020013373ffffffffffffffffffffffffffffffffffffffff16815260200160011515815250600260006005548152602001908152602001600020600082015181600001556020820151816001019080519060200190612417929190612813565b506040820151816002015560608201518160030160006101000a81548173ffffffffffffffffffffffffffffffffffffffff021916908373ffffffffffffffffffffffffffffffffffffffff16021790555060808201518160030160146101000a81548160ff0219169083151502179055509050505050565b6000600381111561249d57fe5b6000803373ffffffffffffffffffffffffffffffffffffffff1673ffffffffffffffffffffffffffffffffffffffff16815260200190815260200160002060000160009054906101000a900460ff1660038111156124f757fe5b1461254d576040517f08c379a00000000000000000000000000000000000000000000000000000000081526004018080602001828103825260228152602001806129d96022913960400191505060405180910390fd5b6000600360008373ffffffffffffffffffffffffffffffffffffffff1673ffffffffffffffffffffffffffffffffffffffff168152602001908152602001600020905060028081111561259c57fe5b8160000160169054906101000a900460ff1660028111156125b957fe5b1461260f576040517f08c379a00000000000000000000000000000000000000000000000000000000081526004018080602001828103825260298152602001806129636029913960400191505060405180910390fd5b60018160000160166101000a81548160ff0219169083600281111561263057fe5b02179055505050565b60006004600083815260200190815260200160002090506000600260008360020154815260200190815260200160002090508160000160009054906101000a900473ffffffffffffffffffffffffffffffffffffffff1673ffffffffffffffffffffffffffffffffffffffff163373ffffffffffffffffffffffffffffffffffffffff16148061271857508160010160009054906101000a900473ffffffffffffffffffffffffffffffffffffffff1673ffffffffffffffffffffffffffffffffffffffff163373ffffffffffffffffffffffffffffffffffffffff16145b61276d576040517f08c379a000000000000000000000000000000000000000000000000000000000815260040180806020018281038252602c8152602001806129ad602c913960400191505060405180910390fd5b8060030160149054906101000a900460ff166127d4576040517f08c379a0000000000000000000000000000000000000000000000000000000008152600401808060200182810382526023815260200180612a456023913960400191505060405180910390fd5b60018160030160146101000a81548160ff02191690831515021790555060018260030160006101000a81548160ff021916908315150217905550505050565b828054600181600116156101000203166002900490600052602060002090601f016020900481019282601f1061285457805160ff1916838001178555612882565b82800160010185558215612882579182015b82811115612881578251825591602001919060010190612866565b5b50905061288f9190612922565b5090565b6040518060a00160405280600081526020016060815260200160008152602001600073ffffffffffffffffffffffffffffffffffffffff1681526020016000151581525090565b50805460018160011615610100020316600290046000825580601f10612900575061291f565b601f01602090049060005260206000209081019061291e9190612922565b5b50565b5b8082111561293b576000816000905550600101612923565b509056fe4f6e6c792073656c6c65722063616e20706572666f726d207468697320616374696f6e546865206170706c69636174696f6e2068617320616c7265616479206265656e207265766965776564596f7520616c7265616479206861766520746865206465736972656420726f6c654f6e6c792073656e646572206f722072656365697665722063616e20636f6e6669726d2064656c69766572794f6e6c792061646d696e2063616e20706572666f726d207468697320616374696f6e5573657220616c726561647920726567697374657265642c207570646174652068697320726f6c654f6e6c792062757965722063616e20706572666f726d207468697320616374696f6e50726f64756374206973206e6f7420617661696c61626c6520666f722072657475726ea2646970667358221220b5fc2a678f9befaa2cb8a58bce449d88546422f68b1ffd8a38b24c47f7ad10a464736f6c63430007000033",
  "immutableReferences": {},
  "source": "// SPDX-License-Identifier: MIT\r\npragma solidity >=0.4.22 <0.9.0;\r\n\r\ncontract BlockStore {\r\n    enum Role {\r\n        Admin,\r\n        Seller,\r\n        Buyer,\r\n        Supplier\r\n    }\r\n\r\n    enum ReqStatus {\r\n        Approved,\r\n        Rejected,\r\n        Waiting\r\n    }\r\n\r\n    struct User {\r\n        Role role;\r\n        address userAddress;\r\n        string password;\r\n        bool isRegistered;\r\n    }\r\n\r\n    struct Store {\r\n        address owner;\r\n        uint rating;\r\n        string name;\r\n        uint balance;\r\n    }\r\n\r\n    struct Product {\r\n        uint id;\r\n        string name;\r\n        uint price;\r\n        address seller;\r\n        bool isAvailable;\r\n    }\r\n\r\n    struct RoleChangeRequest {\r\n        address userAddress;\r\n        Role currentRole;\r\n        Role desiredRole;\r\n        ReqStatus reqStatus;\r\n    }\r\n\r\n    struct DeliveryRequest {\r\n        address sender;\r\n        address receiver;\r\n        uint productId;\r\n        bool isDelivered;\r\n    }\r\n\r\n    mapping(address => User) public users;\r\n    mapping(address => Store) public stores;\r\n    mapping(uint => Product) public products;\r\n    \r\n    mapping(address => RoleChangeRequest) public roleChangeRequests;\r\n    mapping(uint => DeliveryRequest) public deliveryRequests;\r\n\r\n    uint private productCount;\r\n    uint private requestCount;\r\n\r\n    modifier onlyAdmin() {\r\n        require(users[msg.sender].role == Role.Admin, \"Only admin can perform this action\");\r\n        _;\r\n    }\r\n\r\n    modifier onlySeller() {\r\n        require(users[msg.sender].role == Role.Seller, \"Only seller can perform this action\");\r\n        _;\r\n    }\r\n\r\n    modifier onlyBuyer() {\r\n        require(users[msg.sender].role == Role.Buyer, \"Only buyer can perform this action\");\r\n        _;\r\n    }\r\n\r\n    modifier onlySupplier() {\r\n        require(users[msg.sender].role == Role.Supplier, \"Only supplier can perform this action\");\r\n        _;\r\n    }\r\n\r\n    function createUser(address _userAddress, Role _role, string memory _password) public {\r\n        require(!users[_userAddress].isRegistered, \"User already registered\");\r\n        users[_userAddress] = User(_role, _userAddress, _password, true);\r\n    }\r\n\r\n    function createStore(string memory _name) public onlyAdmin {\r\n        stores[msg.sender] = Store(msg.sender, 0, _name, 0);\r\n    }\r\n\r\n    function createAdmin(address _adminAddress, string memory _password) public onlyAdmin {\r\n        require(!users[_adminAddress].isRegistered, \"User already registered, update his role\");\r\n        users[_adminAddress] = User(Role.Admin, _adminAddress, _password, true);\r\n    }\r\n\r\n    function removeStore(address _storeAddress) public onlyAdmin {\r\n        require(stores[_storeAddress].owner != address(0), \"Store does not exist\");\r\n        delete stores[_storeAddress];\r\n\r\n        users[_storeAddress].role = Role.Buyer;\r\n    }\r\n\r\n    function createProduct(string memory _name, uint _price) public onlySeller {\r\n        productCount++;\r\n        products[productCount] = Product(productCount, _name, _price, msg.sender, true);\r\n    }\r\n\r\n    function buyProduct(uint _productId) public payable onlyBuyer {\r\n        Product memory product = products[_productId];\r\n        require(product.id != 0, \"Product doesn't exist\");\r\n        require(product.isAvailable, \"Product is not available\");\r\n        require(msg.value >= product.price, \"Not enough Ether provided\");\r\n\r\n        payable(product.seller).transfer(msg.value);\r\n        product.isAvailable = false;\r\n    }\r\n\r\n    function returnProduct(uint _productId) public payable onlyBuyer {\r\n        Product storage product = products[_productId];\r\n        require(product.isAvailable, \"Product is not available for return\");\r\n\r\n        payable(msg.sender).transfer(product.price);\r\n\r\n        product.isAvailable = true;\r\n    }\r\n\r\n\r\n    function createRequestRoleChange(Role _desiredRole) public {\r\n        require(users[msg.sender].role != _desiredRole, \"You already have the desired role\");\r\n        roleChangeRequests[msg.sender] = RoleChangeRequest(msg.sender, users[msg.sender].role, _desiredRole, ReqStatus.Waiting);\r\n    }\r\n\r\n    function approveRoleChange(address _userAddress) public onlyAdmin {\r\n        RoleChangeRequest storage request = roleChangeRequests[_userAddress];\r\n        require(request.reqStatus == ReqStatus.Waiting, \"The application has already been reviewed\");\r\n        users[_userAddress].role = request.desiredRole;\r\n        request.reqStatus = ReqStatus.Approved;\r\n    }\r\n\r\n    function rejectRoleChange(address _userAddress) public onlyAdmin {\r\n        RoleChangeRequest storage request = roleChangeRequests[_userAddress];\r\n        require(request.reqStatus == ReqStatus.Waiting, \"The application has already been reviewed\");\r\n        request.reqStatus = ReqStatus.Rejected;\r\n    }\r\n\r\n    function createDeliveryRequest(address _receiver, uint _productId) public {\r\n        requestCount++;\r\n        deliveryRequests[requestCount] = DeliveryRequest(msg.sender, _receiver, _productId, false);\r\n    }\r\n\r\n    function confirmDelivery(uint _requestId) public {\r\n        DeliveryRequest storage request = deliveryRequests[_requestId];\r\n        Product storage product = products[request.productId];\r\n        \r\n        require(msg.sender == request.sender || msg.sender == request.receiver, \"Only sender or receiver can confirm delivery\");\r\n        require(product.isAvailable, \"Product is not available for return\");\r\n\r\n        product.isAvailable = true;\r\n        request.isDelivered = true;\r\n    }\r\n}\r\n",
  "sourcePath": "C:\\Users\\CORTEZZ\\source\\repos\\BlockStore\\server\\contracts\\BlockStore.sol",
  "compiler": {
    "name": "solc",
    "version": "0.7.0+commit.9e61f92b.Emscripten.clang"
  },
  "schemaVersion": "3.4.16",
  "updatedAt": "2024-05-05T12:02:53.074Z",
  "networkType": "ethereum",
  "devdoc": {
    "kind": "dev",
    "methods": {},
    "version": 1
  },
  "userdoc": {
    "kind": "user",
    "methods": {},
    "version": 1
  }
}